S0110000506F73745F4C6162352E73726563CA
S11300000C9434000C9446000C9446000C94460066
S11300100C9446000C9446000C9446000C94460044
S11300200C9446000C9446000C9446000C94460034
S11300300C9446000C9446000C9446000C94460024
S11300400C9446000C9446000C9446000C94460014
S11300500C9446000C94DC000C9446000C9446006E
S11300600C9446000C94460011241FBECFEFD8E038
S1130070DEBFCDBF21E0A0E0B1E001C01D92A930F8
S1130080B207E1F70E947B000C94B3040C940000C7
S1130090ECE7F0E080818064808380818F778083C7
S11300A080818F7D8083EAE7F0E0808187608083B0
S11300B0808180688083EEE7F0E0808181608083C6
S11300C08081826080838081806180830895ECE7F1
S11300D0F0E09081907F892B8083EAE7F0E08081D3
S11300E08064808380917A0086FDFCCF80917800C3
S11300F0909179000895F8948FEF8AB91092B00026
S11301001092B1000E9448000E94F1000E941D015B
S113011060E074E081E00E94CB01789480E00E946A
S11301206700BC0180E090E00E94900360930501A9
S11301307093060180930701909308010E949B012C
S11301408FE39CE90197F1F700C0000081E00E9471
S11301506700809304010E944C028FE39CE901979D
S1130160F1F700C0000084E00E946700BC0180E059
S113017090E00E94900320E030E048EC52E40E94BA
S11301801E0420E030EC4FE754E40E94EF02609339
S113019000017093010180930201909303010E9476
S11301A06103862F61E00E9404018FE39CE90197BB
S11301B0F1F700C00000B2CF1F920F920FB60F925A
S11301C011248F93EF93FF93EAE7F0E0808180613D
S11301D08083FF91EF918F910F900FBE0F901F902E
S11301E0189585B5877F85BD84B5826084BD84B547
S11301F0816084BD85B58B7F85BD85B5826085BDF5
S113020085B5816085BD0895613039F494B59068F1
S113021094BD94B59F7B94BD06C094B5906894BD7D
S113022094B5906494BD2FEF829FC001112464E6BD
S113023070E00E948B0467BD089584B1866084B920
S113024010928500109284008FE39CE990938700BC
S113025080938600E0E8F0E080EA80838081826019
S11302608083E1E8F0E088E180838081826080839C
S113027008954F925F926F927F92AF92BF92CF9206
S1130280DF92EF92FF920F931F93CF93DF93CDB73B
S1130290DEB728970FB6F894DEBF0FBECDBF290195
S11302A03A01ED82FE820F8318870E9482026983DD
S11302B07A838B839C83A6019501698D7A8D8B8DBE
S11302C09C8D0E9482029B01AC0169817A818B81A1
S11302D09C810E941E0469837A838B839C83A3017F
S11302E09201C801B7010E9482029B01AC0169819D
S11302F07A818B819C810E94EF029B01AC01C60133
S1130300B5010E9483020E946103CB0128960FB6B7
S1130310F894DEBF0FBECDBFDF91CF911F910F9137
S1130320FF90EF90DF90CF90BF90AF907F906F9051
S11303305F904F900895AF92BF92CF92DF92EF9269
S1130340FF920F931F9325E42F9326E92F931F9277
S11303501F920F2EA12CB12CFAE7CF2EF4E4DF2E3E
S1130360F02DE12CF12C00E814E420E030E0A901A8
S11303700E9439010F900F900F900F909093890075
S1130380809388001F910F91FF90EF90DF90CF90A2
S1130390BF90AF90089594B1986094B9E0EBF0E009
S11303A0908193609083882321F08081806C808386
S11303B005C0E0EBF0E080818068808361157440C3
S11303C031F4E1EBF0E08081876080830895E1EB14
S11303D0F0E080818160808308954F925F926F92F4
S11303E07F92AF92BF92CF92DF92EF92FF920F93E0
S11303F01F93CF93DF93CDB7DEB728970FB6F8944A
S1130400DEBF0FBECDBF29013A01ED82FE820F830C
S113041018870E94820269837A838B839C83A60156
S11304209501698D7A8D8B8D9C8D0E9482029B0132
S1130430AC0169817A818B819C810E941E0469834D
S11304407A838B839C83A3019201C801B7010E9424
S113045082029B01AC0169817A818B819C810E941B
S1130460EF029B01AC01C601B5010E9483022896EC
S11304700FB6F894DEBF0FBECDBFDF91CF911F91B1
S11304800F91FF90EF90DF90CF90BF90AF907F904F
S11304906F905F904F900895AF92BF92CF92DF928A
S11304A0EF92FF920F931F93682F70E080E090E02B
S11304B00E94900322E42F9320E12F931F921F9216
S11304C00F2EA12CB12CF0ECCF2EF0E4DF2EF02D6A
S11304D0E12CF12C08E413E420E030E0A9010E94AF
S11304E0ED010F900F900F900F900E9461036093A5
S11304F0B3001F910F91FF90EF90DF90CF90BF90CA
S1130500AF9008955058BB27AA270E949A020C94D2
S1130510E4030E94D60338F00E94DD0320F039F48E
S11305209F3F19F426F40C94D3030EF4E095E7FBF3
S11305300C94CD03E92F0E94F50358F3BA17620710
S113054073078407950720F079F4A6F50C94170433
S11305500EF4E0950B2EBA2FA02D0B01B9019001DA
S11305600C01CA01A0011124FF27591B99F0593F1E
S113057050F4503E68F11A16F040A22F232F342F66
S11305804427585FF3CF469537952795A795F040B4
S11305905395C9F77EF41F16BA0B620B730B840BC9
S11305A0BAF09150A1F0FF0FBB1F661F771F881F81
S11305B0C2F70EC0BA0F621F731F841F48F48795D9
S11305C077956795B795F7959E3F08F0B0CF9395CB
S11305D0880F08F09927EE0F9795879508950E9444
S11305E003030C94E4030E94DD0358F00E94D60335
S11305F040F029F45F3F29F00C94CD0351110C9481
S113060018040C94D3030E94F50368F39923B1F3FF
S1130610552391F3951B550BBB27AA276217730724
S1130620840738F09F5F5F4F220F331F441FAA1FB8
S1130630A9F335D00E2E3AF0E0E832D09150504074
S1130640E695001CCAF72BD0FE2F29D0660F771F22
S1130650881FBB1F261737074807AB07B0E809F008
S1130660BB0B802DBF01FF2793585F4F3AF09E3F8D
S1130670510578F00C94CD030C9418045F3FE4F317
S1130680983ED4F3869577956795B795F7959F5FD0
S1130690C9F7880F911D9695879597F90895E1E01C
S11306A0660F771F881FBB1F621773078407BA077B
S11306B020F0621B730B840BBA0BEE1F88F7E095D6
S11306C008950E94FD0388F09F5798F0B92F992749
S11306D0B751B0F0E1F0660F771F881F991F1AF029
S11306E0BA95C9F714C0B13091F00E941704B1E073
S11306F008950C941704672F782F8827B85F39F072
S1130700B93FCCF3869577956795B395D9F73EF4C1
S113071090958095709561957F4F8F4F9F4F089569
S1130720E89409C097FB3EF4909580957095619587
S11307307F4F8F4F9F4F9923A9F0F92F96E9BB273D
S11307409395F695879577956795B795F111F8CFB9
S1130750FAF4BB0F11F460FF1BC06F5F7F4F8F4F24
S11307609F4F16C0882311F096E911C0772321F01A
S11307709EE8872F762F05C0662371F096E8862FB2
S113078070E060E02AF09A95660F771F881FDAF709
S1130790880F9695879597F9089597F99F6780E84C
S11307A070E060E008959FEF80EC089500240A94BF
S11307B01616170618060906089500240A94121638
S11307C01306140605060895092E0394000C11F46B
S11307D0882352F0BB0F40F4BF2B11F460FF04C018
S11307E06F5F7F4F8F4F9F4F089557FD9058440F71
S11307F0551F59F05F3F71F04795880F97FB991F7C
S113080061F09F3F79F08795089512161306140638
S1130810551FF2CF4695F1DF08C0161617061806C5
S1130820991FF1CF86957105610508940895E894A0
S1130830BB2766277727CB0197F908950E943104D7
S11308400C94E4030E94D60338F00E94DD0320F0E8
S1130850952311F00C94CD030C94D30311240C9420
S113086018040E94F50370F3959FC1F3950F50E0AF
S1130870551F629FF001729FBB27F00DB11D639F4E
S1130880AA27F00DB11DAA1F649F6627B00DA11DF4
S1130890661F829F2227B00DA11D621F739FB00D9A
S11308A0A11D621F839FA00D611D221F749F33270A
S11308B0A00D611D231F849F600D211D822F762FA3
S11308C06A2F11249F5750409AF0F1F088234AF080
S11308D0EE0FFF1FBB1F661F771F881F91505040EC
S11308E0A9F79E3F510580F00C94CD030C94180495
S11308F05F3FE4F3983ED4F3869577956795B79573
S1130900F795E7959F5FC1F7FE2B880F911D96958C
S1130910879597F9089597FB072E16F4009407D04E
S113092077FD09D00E949F0407FC05D03EF4909502
S113093081959F4F0895709561957F4F0895AA1BE7
S1130940BB1B51E107C0AA1FBB1FA617B70710F0B6
S1130950A61BB70B881F991F5A95A9F780959095E8
S10D0960BC01CD010895F894FFCF07
S9030000FC
